{
  "_format": "hh-sol-artifact-1",
  "contractName": "XPNetworkStaker",
  "sourceName": "contracts/XPNetStaker.sol",
  "abi": [
    {
      "inputs": [
        {
          "internalType": "contract ERC20",
          "name": "_token",
          "type": "address"
        }
      ],
      "stateMutability": "nonpayable",
      "type": "constructor"
    },
    {
      "anonymous": false,
      "inputs": [
        {
          "indexed": true,
          "internalType": "address",
          "name": "owner",
          "type": "address"
        },
        {
          "indexed": true,
          "internalType": "address",
          "name": "approved",
          "type": "address"
        },
        {
          "indexed": true,
          "internalType": "uint256",
          "name": "tokenId",
          "type": "uint256"
        }
      ],
      "name": "Approval",
      "type": "event"
    },
    {
      "anonymous": false,
      "inputs": [
        {
          "indexed": true,
          "internalType": "address",
          "name": "owner",
          "type": "address"
        },
        {
          "indexed": true,
          "internalType": "address",
          "name": "operator",
          "type": "address"
        },
        {
          "indexed": false,
          "internalType": "bool",
          "name": "approved",
          "type": "bool"
        }
      ],
      "name": "ApprovalForAll",
      "type": "event"
    },
    {
      "anonymous": false,
      "inputs": [
        {
          "indexed": true,
          "internalType": "address",
          "name": "previousOwner",
          "type": "address"
        },
        {
          "indexed": true,
          "internalType": "address",
          "name": "newOwner",
          "type": "address"
        }
      ],
      "name": "OwnershipTransferred",
      "type": "event"
    },
    {
      "anonymous": false,
      "inputs": [
        {
          "indexed": false,
          "internalType": "address",
          "name": "owner",
          "type": "address"
        },
        {
          "indexed": false,
          "internalType": "uint256",
          "name": "amt",
          "type": "uint256"
        },
        {
          "indexed": false,
          "internalType": "uint256",
          "name": "nftID",
          "type": "uint256"
        }
      ],
      "name": "StakeCreated",
      "type": "event"
    },
    {
      "anonymous": false,
      "inputs": [
        {
          "indexed": false,
          "internalType": "address",
          "name": "owner",
          "type": "address"
        },
        {
          "indexed": false,
          "internalType": "uint256",
          "name": "amt",
          "type": "uint256"
        }
      ],
      "name": "StakeRewardWithdrawn",
      "type": "event"
    },
    {
      "anonymous": false,
      "inputs": [
        {
          "indexed": false,
          "internalType": "address",
          "name": "owner",
          "type": "address"
        },
        {
          "indexed": false,
          "internalType": "uint256",
          "name": "amt",
          "type": "uint256"
        }
      ],
      "name": "StakeWithdrawn",
      "type": "event"
    },
    {
      "anonymous": false,
      "inputs": [
        {
          "indexed": false,
          "internalType": "address",
          "name": "to",
          "type": "address"
        },
        {
          "indexed": false,
          "internalType": "uint256",
          "name": "amt",
          "type": "uint256"
        }
      ],
      "name": "SudoTokensAdded",
      "type": "event"
    },
    {
      "anonymous": false,
      "inputs": [
        {
          "indexed": false,
          "internalType": "address",
          "name": "to",
          "type": "address"
        },
        {
          "indexed": false,
          "internalType": "int256",
          "name": "amt",
          "type": "int256"
        }
      ],
      "name": "SudoTokensDeducted",
      "type": "event"
    },
    {
      "anonymous": false,
      "inputs": [
        {
          "indexed": false,
          "internalType": "address",
          "name": "to",
          "type": "address"
        },
        {
          "indexed": false,
          "internalType": "uint256",
          "name": "amt",
          "type": "uint256"
        }
      ],
      "name": "SudoWithdraw",
      "type": "event"
    },
    {
      "anonymous": false,
      "inputs": [
        {
          "indexed": true,
          "internalType": "address",
          "name": "from",
          "type": "address"
        },
        {
          "indexed": true,
          "internalType": "address",
          "name": "to",
          "type": "address"
        },
        {
          "indexed": true,
          "internalType": "uint256",
          "name": "tokenId",
          "type": "uint256"
        }
      ],
      "name": "Transfer",
      "type": "event"
    },
    {
      "inputs": [
        {
          "internalType": "address",
          "name": "to",
          "type": "address"
        },
        {
          "internalType": "uint256",
          "name": "tokenId",
          "type": "uint256"
        }
      ],
      "name": "approve",
      "outputs": [],
      "stateMutability": "nonpayable",
      "type": "function"
    },
    {
      "inputs": [
        {
          "internalType": "address",
          "name": "owner",
          "type": "address"
        }
      ],
      "name": "balanceOf",
      "outputs": [
        {
          "internalType": "uint256",
          "name": "",
          "type": "uint256"
        }
      ],
      "stateMutability": "view",
      "type": "function"
    },
    {
      "inputs": [],
      "name": "baseUri",
      "outputs": [
        {
          "internalType": "string",
          "name": "",
          "type": "string"
        }
      ],
      "stateMutability": "view",
      "type": "function"
    },
    {
      "inputs": [
        {
          "internalType": "uint256",
          "name": "_nftID",
          "type": "uint256"
        }
      ],
      "name": "checkIsUnlocked",
      "outputs": [
        {
          "internalType": "bool",
          "name": "",
          "type": "bool"
        }
      ],
      "stateMutability": "view",
      "type": "function"
    },
    {
      "inputs": [
        {
          "internalType": "uint256",
          "name": "tokenId",
          "type": "uint256"
        }
      ],
      "name": "getApproved",
      "outputs": [
        {
          "internalType": "address",
          "name": "",
          "type": "address"
        }
      ],
      "stateMutability": "view",
      "type": "function"
    },
    {
      "inputs": [
        {
          "internalType": "address",
          "name": "owner",
          "type": "address"
        },
        {
          "internalType": "address",
          "name": "operator",
          "type": "address"
        }
      ],
      "name": "isApprovedForAll",
      "outputs": [
        {
          "internalType": "bool",
          "name": "",
          "type": "bool"
        }
      ],
      "stateMutability": "view",
      "type": "function"
    },
    {
      "inputs": [],
      "name": "name",
      "outputs": [
        {
          "internalType": "string",
          "name": "",
          "type": "string"
        }
      ],
      "stateMutability": "view",
      "type": "function"
    },
    {
      "inputs": [],
      "name": "owner",
      "outputs": [
        {
          "internalType": "address",
          "name": "",
          "type": "address"
        }
      ],
      "stateMutability": "view",
      "type": "function"
    },
    {
      "inputs": [
        {
          "internalType": "uint256",
          "name": "tokenId",
          "type": "uint256"
        }
      ],
      "name": "ownerOf",
      "outputs": [
        {
          "internalType": "address",
          "name": "",
          "type": "address"
        }
      ],
      "stateMutability": "view",
      "type": "function"
    },
    {
      "inputs": [],
      "name": "renounceOwnership",
      "outputs": [],
      "stateMutability": "nonpayable",
      "type": "function"
    },
    {
      "inputs": [
        {
          "internalType": "address",
          "name": "from",
          "type": "address"
        },
        {
          "internalType": "address",
          "name": "to",
          "type": "address"
        },
        {
          "internalType": "uint256",
          "name": "tokenId",
          "type": "uint256"
        }
      ],
      "name": "safeTransferFrom",
      "outputs": [],
      "stateMutability": "nonpayable",
      "type": "function"
    },
    {
      "inputs": [
        {
          "internalType": "address",
          "name": "from",
          "type": "address"
        },
        {
          "internalType": "address",
          "name": "to",
          "type": "address"
        },
        {
          "internalType": "uint256",
          "name": "tokenId",
          "type": "uint256"
        },
        {
          "internalType": "bytes",
          "name": "_data",
          "type": "bytes"
        }
      ],
      "name": "safeTransferFrom",
      "outputs": [],
      "stateMutability": "nonpayable",
      "type": "function"
    },
    {
      "inputs": [
        {
          "internalType": "address",
          "name": "operator",
          "type": "address"
        },
        {
          "internalType": "bool",
          "name": "approved",
          "type": "bool"
        }
      ],
      "name": "setApprovalForAll",
      "outputs": [],
      "stateMutability": "nonpayable",
      "type": "function"
    },
    {
      "inputs": [
        {
          "internalType": "string",
          "name": "_newUri",
          "type": "string"
        }
      ],
      "name": "setBaseUri",
      "outputs": [],
      "stateMutability": "nonpayable",
      "type": "function"
    },
    {
      "inputs": [
        {
          "internalType": "uint256",
          "name": "_nftID",
          "type": "uint256"
        }
      ],
      "name": "showAvailableRewards",
      "outputs": [
        {
          "internalType": "uint256",
          "name": "",
          "type": "uint256"
        }
      ],
      "stateMutability": "view",
      "type": "function"
    },
    {
      "inputs": [
        {
          "internalType": "uint256",
          "name": "_amt",
          "type": "uint256"
        },
        {
          "internalType": "uint256",
          "name": "_timeperiod",
          "type": "uint256"
        }
      ],
      "name": "stake",
      "outputs": [],
      "stateMutability": "nonpayable",
      "type": "function"
    },
    {
      "inputs": [],
      "name": "stakedCount",
      "outputs": [
        {
          "internalType": "uint256",
          "name": "",
          "type": "uint256"
        }
      ],
      "stateMutability": "view",
      "type": "function"
    },
    {
      "inputs": [
        {
          "internalType": "uint256",
          "name": "",
          "type": "uint256"
        }
      ],
      "name": "stakes",
      "outputs": [
        {
          "internalType": "uint256",
          "name": "amount",
          "type": "uint256"
        },
        {
          "internalType": "uint256",
          "name": "nftTokenId",
          "type": "uint256"
        },
        {
          "internalType": "uint256",
          "name": "lockInPeriod",
          "type": "uint256"
        },
        {
          "internalType": "uint256",
          "name": "rewardWithdrawn",
          "type": "uint256"
        },
        {
          "internalType": "uint256",
          "name": "startTime",
          "type": "uint256"
        },
        {
          "internalType": "address",
          "name": "staker",
          "type": "address"
        },
        {
          "internalType": "int256",
          "name": "correction",
          "type": "int256"
        },
        {
          "internalType": "bool",
          "name": "isActive",
          "type": "bool"
        },
        {
          "internalType": "bool",
          "name": "stakeWithdrawn",
          "type": "bool"
        }
      ],
      "stateMutability": "view",
      "type": "function"
    },
    {
      "inputs": [
        {
          "internalType": "uint256",
          "name": "_nftID",
          "type": "uint256"
        },
        {
          "internalType": "uint256",
          "name": "_amt",
          "type": "uint256"
        }
      ],
      "name": "sudoAddToken",
      "outputs": [
        {
          "internalType": "bool",
          "name": "",
          "type": "bool"
        }
      ],
      "stateMutability": "nonpayable",
      "type": "function"
    },
    {
      "inputs": [
        {
          "internalType": "uint256",
          "name": "_nftID",
          "type": "uint256"
        },
        {
          "internalType": "int256",
          "name": "_amt",
          "type": "int256"
        }
      ],
      "name": "sudoDeductToken",
      "outputs": [
        {
          "internalType": "bool",
          "name": "",
          "type": "bool"
        }
      ],
      "stateMutability": "nonpayable",
      "type": "function"
    },
    {
      "inputs": [
        {
          "internalType": "uint256",
          "name": "_nftID",
          "type": "uint256"
        }
      ],
      "name": "sudoWithdrawToken",
      "outputs": [],
      "stateMutability": "nonpayable",
      "type": "function"
    },
    {
      "inputs": [
        {
          "internalType": "bytes4",
          "name": "interfaceId",
          "type": "bytes4"
        }
      ],
      "name": "supportsInterface",
      "outputs": [
        {
          "internalType": "bool",
          "name": "",
          "type": "bool"
        }
      ],
      "stateMutability": "view",
      "type": "function"
    },
    {
      "inputs": [],
      "name": "symbol",
      "outputs": [
        {
          "internalType": "string",
          "name": "",
          "type": "string"
        }
      ],
      "stateMutability": "view",
      "type": "function"
    },
    {
      "inputs": [
        {
          "internalType": "uint256",
          "name": "index",
          "type": "uint256"
        }
      ],
      "name": "tokenByIndex",
      "outputs": [
        {
          "internalType": "uint256",
          "name": "",
          "type": "uint256"
        }
      ],
      "stateMutability": "view",
      "type": "function"
    },
    {
      "inputs": [
        {
          "internalType": "address",
          "name": "owner",
          "type": "address"
        },
        {
          "internalType": "uint256",
          "name": "index",
          "type": "uint256"
        }
      ],
      "name": "tokenOfOwnerByIndex",
      "outputs": [
        {
          "internalType": "uint256",
          "name": "",
          "type": "uint256"
        }
      ],
      "stateMutability": "view",
      "type": "function"
    },
    {
      "inputs": [
        {
          "internalType": "uint256",
          "name": "tokenId",
          "type": "uint256"
        }
      ],
      "name": "tokenURI",
      "outputs": [
        {
          "internalType": "string",
          "name": "",
          "type": "string"
        }
      ],
      "stateMutability": "view",
      "type": "function"
    },
    {
      "inputs": [],
      "name": "totalSupply",
      "outputs": [
        {
          "internalType": "uint256",
          "name": "",
          "type": "uint256"
        }
      ],
      "stateMutability": "view",
      "type": "function"
    },
    {
      "inputs": [
        {
          "internalType": "address",
          "name": "from",
          "type": "address"
        },
        {
          "internalType": "address",
          "name": "to",
          "type": "address"
        },
        {
          "internalType": "uint256",
          "name": "tokenId",
          "type": "uint256"
        }
      ],
      "name": "transferFrom",
      "outputs": [],
      "stateMutability": "nonpayable",
      "type": "function"
    },
    {
      "inputs": [
        {
          "internalType": "address",
          "name": "newOwner",
          "type": "address"
        }
      ],
      "name": "transferOwnership",
      "outputs": [],
      "stateMutability": "nonpayable",
      "type": "function"
    },
    {
      "inputs": [
        {
          "internalType": "uint256",
          "name": "_nftID",
          "type": "uint256"
        }
      ],
      "name": "withdraw",
      "outputs": [],
      "stateMutability": "nonpayable",
      "type": "function"
    },
    {
      "inputs": [
        {
          "internalType": "uint256",
          "name": "_nftID",
          "type": "uint256"
        },
        {
          "internalType": "uint256",
          "name": "_amt",
          "type": "uint256"
        }
      ],
      "name": "withdrawRewards",
      "outputs": [],
      "stateMutability": "nonpayable",
      "type": "function"
    }
  ],
  "bytecode": "0x60a06040526000600c5560405180602001604052806000815250600d90805190602001906200003092919062000265565b506000600e553480156200004357600080fd5b5060405162005da938038062005da983398181016040528101906200006991906200032c565b6040518060400160405280601281526020017f58504e6574776f726b4e46545374616b657200000000000000000000000000008152506040518060400160405280600581526020017f58504e4654000000000000000000000000000000000000000000000000000000815250620000f5620000e96200019960201b60201c565b620001a160201b60201c565b81600190805190602001906200010d92919062000265565b5080600290805190602001906200012692919062000265565b5050508073ffffffffffffffffffffffffffffffffffffffff1660808173ffffffffffffffffffffffffffffffffffffffff1660601b815250506040518060600160405280602c815260200162005d7d602c9139600d90805190602001906200019192919062000265565b50506200041f565b600033905090565b60008060009054906101000a900473ffffffffffffffffffffffffffffffffffffffff169050816000806101000a81548173ffffffffffffffffffffffffffffffffffffffff021916908373ffffffffffffffffffffffffffffffffffffffff1602179055508173ffffffffffffffffffffffffffffffffffffffff168173ffffffffffffffffffffffffffffffffffffffff167f8be0079c531659141344cd1fd0a4f28419497f9722a3daafe3b4186f6b6457e060405160405180910390a35050565b8280546200027390620003a0565b90600052602060002090601f016020900481019282620002975760008555620002e3565b82601f10620002b257805160ff1916838001178555620002e3565b82800160010185558215620002e3579182015b82811115620002e2578251825591602001919060010190620002c5565b5b509050620002f29190620002f6565b5090565b5b8082111562000311576000816000905550600101620002f7565b5090565b600081519050620003268162000405565b92915050565b6000602082840312156200033f57600080fd5b60006200034f8482850162000315565b91505092915050565b6000620003658262000380565b9050919050565b6000620003798262000358565b9050919050565b600073ffffffffffffffffffffffffffffffffffffffff82169050919050565b60006002820490506001821680620003b957607f821691505b60208210811415620003d057620003cf620003d6565b5b50919050565b7f4e487b7100000000000000000000000000000000000000000000000000000000600052602260045260246000fd5b62000410816200036c565b81146200041c57600080fd5b50565b60805160601c61592a620004536000396000818161086101528181610e560152818161134d0152611879015261592a6000f3fe608060405234801561001057600080fd5b50600436106101e55760003560e01c806370a082311161010f578063b88d4fde116100a2578063e985e9c511610071578063e985e9c5146105a8578063f2fde38b146105d8578063f3c8f95f146105f4578063fe9a256414610624576101e5565b8063b88d4fde146104f4578063c87b56dd14610510578063d5a44f8614610540578063e3cb761014610578576101e5565b806395d89b41116100de57806395d89b41146104805780639abc83201461049e578063a0bcfc7f146104bc578063a22cb465146104d8576101e5565b806370a082311461040c578063715018a61461043c5780637b0472f0146104465780638da5cb5b14610462576101e5565b80632e1a7d4d116101875780634f6ccce7116101565780634f6ccce71461036057806352cb5133146103905780635a590f2f146103ac5780636352211e146103dc576101e5565b80632e1a7d4d146102da5780632f745c59146102f657806339c082d91461032657806342842e0e14610344576101e5565b8063081812fc116101c3578063081812fc14610254578063095ea7b31461028457806318160ddd146102a057806323b872dd146102be576101e5565b806301ffc9a7146101ea57806306fdde031461021a578063073d259914610238575b600080fd5b61020460048036038101906101ff9190613e75565b610654565b6040516102119190614610565b60405180910390f35b610222610666565b60405161022f919061462b565b60405180910390f35b610252600480360381019061024d9190613f08565b6106f8565b005b61026e60048036038101906102699190613f08565b6109ef565b60405161027b91906144e9565b60405180910390f35b61029e60048036038101906102999190613e10565b610a74565b005b6102a8610b8c565b6040516102b59190614a2d565b60405180910390f35b6102d860048036038101906102d39190613d0a565b610b99565b005b6102f460048036038101906102ef9190613f08565b610bf9565b005b610310600480360381019061030b9190613e10565b610fb4565b60405161031d9190614a2d565b60405180910390f35b61032e611059565b60405161033b9190614a2d565b60405180910390f35b61035e60048036038101906103599190613d0a565b61105f565b005b61037a60048036038101906103759190613f08565b61107f565b6040516103879190614a2d565b60405180910390f35b6103aa60048036038101906103a59190613f6d565b611116565b005b6103c660048036038101906103c19190613f6d565b6114a4565b6040516103d39190614610565b60405180910390f35b6103f660048036038101906103f19190613f08565b61159a565b60405161040391906144e9565b60405180910390f35b61042660048036038101906104219190613ca5565b61164c565b6040516104339190614a2d565b60405180910390f35b610444611704565b005b610460600480360381019061045b9190613f6d565b61178c565b005b61046a611b95565b60405161047791906144e9565b60405180910390f35b610488611bbe565b604051610495919061462b565b60405180910390f35b6104a6611c50565b6040516104b3919061462b565b60405180910390f35b6104d660048036038101906104d19190613ec7565b611cde565b005b6104f260048036038101906104ed9190613dd4565b611d74565b005b61050e60048036038101906105099190613d59565b611ef5565b005b61052a60048036038101906105259190613f08565b611f57565b604051610537919061462b565b60405180910390f35b61055a60048036038101906105559190613f08565b611f69565b60405161056f99989796959493929190614a48565b60405180910390f35b610592600480360381019061058d9190613f31565b611ff1565b60405161059f9190614610565b60405180910390f35b6105c260048036038101906105bd9190613cce565b6120e7565b6040516105cf9190614610565b60405180910390f35b6105f260048036038101906105ed9190613ca5565b61217b565b005b61060e60048036038101906106099190613f08565b612273565b60405161061b9190614a2d565b60405180910390f35b61063e60048036038101906106399190613f08565b6123e6565b60405161064b9190614610565b60405180910390f35b600061065f82612535565b9050919050565b60606001805461067590614e9c565b80601f01602080910402602001604051908101604052809291908181526020018280546106a190614e9c565b80156106ee5780601f106106c3576101008083540402835291602001916106ee565b820191906000526020600020905b8154815290600101906020018083116106d157829003601f168201915b5050505050905090565b6107006125af565b73ffffffffffffffffffffffffffffffffffffffff1661071e611b95565b73ffffffffffffffffffffffffffffffffffffffff1614610774576040517f08c379a000000000000000000000000000000000000000000000000000000000815260040161076b906148ed565b60405180910390fd5b6000600f60008381526020019081526020016000206040518061012001604052908160008201548152602001600182015481526020016002820154815260200160038201548152602001600482015481526020016005820160009054906101000a900473ffffffffffffffffffffffffffffffffffffffff1673ffffffffffffffffffffffffffffffffffffffff1673ffffffffffffffffffffffffffffffffffffffff168152602001600682015481526020016007820160009054906101000a900460ff161515151581526020016007820160019054906101000a900460ff16151515158152505090507f000000000000000000000000000000000000000000000000000000000000000073ffffffffffffffffffffffffffffffffffffffff1663a9059cbb8260a0015183600001516040518363ffffffff1660e01b81526004016108c29291906145b0565b602060405180830381600087803b1580156108dc57600080fd5b505af11580156108f0573d6000803e3d6000fd5b505050506040513d601f19601f820116820180604052508101906109149190613e4c565b507faa221e0de1adf63f773e103cfb91d4a9894ccda957bc1c2b4a14e2661c7de0288160a00151826000015160405161094e9291906145b0565b60405180910390a1600f600083815260200190815260200160002060008082016000905560018201600090556002820160009055600382016000905560048201600090556005820160006101000a81549073ffffffffffffffffffffffffffffffffffffffff021916905560068201600090556007820160006101000a81549060ff02191690556007820160016101000a81549060ff021916905550505050565b60006109fa826125b7565b610a39576040517f08c379a0000000000000000000000000000000000000000000000000000000008152600401610a30906148ad565b60405180910390fd5b6005600083815260200190815260200160002060009054906101000a900473ffffffffffffffffffffffffffffffffffffffff169050919050565b6000610a7f8261159a565b90508073ffffffffffffffffffffffffffffffffffffffff168373ffffffffffffffffffffffffffffffffffffffff161415610af0576040517f08c379a0000000000000000000000000000000000000000000000000000000008152600401610ae79061494d565b60405180910390fd5b8073ffffffffffffffffffffffffffffffffffffffff16610b0f6125af565b73ffffffffffffffffffffffffffffffffffffffff161480610b3e5750610b3d81610b386125af565b6120e7565b5b610b7d576040517f08c379a0000000000000000000000000000000000000000000000000000000008152600401610b74906147ad565b60405180910390fd5b610b878383612623565b505050565b6000600980549050905090565b610baa610ba46125af565b826126dc565b610be9576040517f08c379a0000000000000000000000000000000000000000000000000000000008152600401610be09061498d565b60405180910390fd5b610bf48383836127ba565b505050565b6000600f60008381526020019081526020016000206040518061012001604052908160008201548152602001600182015481526020016002820154815260200160038201548152602001600482015481526020016005820160009054906101000a900473ffffffffffffffffffffffffffffffffffffffff1673ffffffffffffffffffffffffffffffffffffffff1673ffffffffffffffffffffffffffffffffffffffff168152602001600682015481526020016007820160009054906101000a900460ff161515151581526020016007820160019054906101000a900460ff16151515158152505090508060e00151610d28576040517f08c379a0000000000000000000000000000000000000000000000000000000008152600401610d1f90614a0d565b60405180910390fd5b80604001518160800151610d3c9190614c33565b421015610d7e576040517f08c379a0000000000000000000000000000000000000000000000000000000008152600401610d759061470d565b60405180910390fd5b3373ffffffffffffffffffffffffffffffffffffffff168160a0015173ffffffffffffffffffffffffffffffffffffffff1614610df0576040517f08c379a0000000000000000000000000000000000000000000000000000000008152600401610de79061488d565b60405180910390fd5b600f600083815260200190815260200160002060070160019054906101000a900460ff1615610e54576040517f08c379a0000000000000000000000000000000000000000000000000000000008152600401610e4b906149ad565b60405180910390fd5b7f000000000000000000000000000000000000000000000000000000000000000073ffffffffffffffffffffffffffffffffffffffff1663a9059cbb3383600001516040518363ffffffff1660e01b8152600401610eb39291906145b0565b602060405180830381600087803b158015610ecd57600080fd5b505af1158015610ee1573d6000803e3d6000fd5b505050506040513d601f19601f82011682018060405250810190610f059190613e4c565b610f44576040517f08c379a0000000000000000000000000000000000000000000000000000000008152600401610f3b906149ed565b60405180910390fd5b6001600f600084815260200190815260200160002060070160016101000a81548160ff0219169083151502179055507f8108595eb6bad3acefa9da467d90cc2217686d5c5ac85460f8b7849c840645fc338260000151604051610fa89291906145b0565b60405180910390a15050565b6000610fbf8361164c565b8210611000576040517f08c379a0000000000000000000000000000000000000000000000000000000008152600401610ff79061466d565b60405180910390fd5b600760008473ffffffffffffffffffffffffffffffffffffffff1673ffffffffffffffffffffffffffffffffffffffff168152602001908152602001600020600083815260200190815260200160002054905092915050565b600e5481565b61107a83838360405180602001604052806000815250611ef5565b505050565b6000611089610b8c565b82106110ca576040517f08c379a00000000000000000000000000000000000000000000000000000000081526004016110c1906149cd565b60405180910390fd5b60098281548110611104577f4e487b7100000000000000000000000000000000000000000000000000000000600052603260045260246000fd5b90600052602060002001549050919050565b6000600f60008481526020019081526020016000206040518061012001604052908160008201548152602001600182015481526020016002820154815260200160038201548152602001600482015481526020016005820160009054906101000a900473ffffffffffffffffffffffffffffffffffffffff1673ffffffffffffffffffffffffffffffffffffffff1673ffffffffffffffffffffffffffffffffffffffff168152602001600682015481526020016007820160009054906101000a900460ff161515151581526020016007820160019054906101000a900460ff16151515158152505090508060e00151611245576040517f08c379a000000000000000000000000000000000000000000000000000000000815260040161123c90614a0d565b60405180910390fd5b600061125e826040015183600001518460800151612a16565b90503373ffffffffffffffffffffffffffffffffffffffff166112808561159a565b73ffffffffffffffffffffffffffffffffffffffff16146112d6576040517f08c379a00000000000000000000000000000000000000000000000000000000081526004016112cd9061464d565b60405180910390fd5b60008260c0015183606001518385600001516112f29190614c33565b6112fc9190614da8565b6113069190614b9f565b90508084111561134b576040517f08c379a00000000000000000000000000000000000000000000000000000000081526004016113429061478d565b60405180910390fd5b7f000000000000000000000000000000000000000000000000000000000000000073ffffffffffffffffffffffffffffffffffffffff1663a9059cbb33866040518363ffffffff1660e01b81526004016113a69291906145b0565b602060405180830381600087803b1580156113c057600080fd5b505af11580156113d4573d6000803e3d6000fd5b505050506040513d601f19601f820116820180604052508101906113f89190613e4c565b611437576040517f08c379a000000000000000000000000000000000000000000000000000000000815260040161142e906149ed565b60405180910390fd5b83600f6000878152602001908152602001600020600301600082825461145d9190614c33565b925050819055507fa8aa58785269156f9af2bf5cc3c6b3f1490af12c4187bd981e0fb3788fb1d09b33856040516114959291906145b0565b60405180910390a15050505050565b60006114ae6125af565b73ffffffffffffffffffffffffffffffffffffffff166114cc611b95565b73ffffffffffffffffffffffffffffffffffffffff1614611522576040517f08c379a0000000000000000000000000000000000000000000000000000000008152600401611519906148ed565b60405180910390fd5b81600f600085815260200190815260200160002060060160008282546115489190614b9f565b925050819055507fb109947f0a389fecd0b021ad318571fbd9151a40277872bbc377a8c89382b5326115798461159a565b836040516115889291906145b0565b60405180910390a16001905092915050565b6000806003600084815260200190815260200160002060009054906101000a900473ffffffffffffffffffffffffffffffffffffffff169050600073ffffffffffffffffffffffffffffffffffffffff168173ffffffffffffffffffffffffffffffffffffffff161415611643576040517f08c379a000000000000000000000000000000000000000000000000000000000815260040161163a906147ed565b60405180910390fd5b80915050919050565b60008073ffffffffffffffffffffffffffffffffffffffff168273ffffffffffffffffffffffffffffffffffffffff1614156116bd576040517f08c379a00000000000000000000000000000000000000000000000000000000081526004016116b4906147cd565b60405180910390fd5b600460008373ffffffffffffffffffffffffffffffffffffffff1673ffffffffffffffffffffffffffffffffffffffff168152602001908152602001600020549050919050565b61170c6125af565b73ffffffffffffffffffffffffffffffffffffffff1661172a611b95565b73ffffffffffffffffffffffffffffffffffffffff1614611780576040517f08c379a0000000000000000000000000000000000000000000000000000000008152600401611777906148ed565b60405180910390fd5b61178a6000612bb0565b565b60008214156117d0576040517f08c379a00000000000000000000000000000000000000000000000000000000081526004016117c7906146cd565b60405180910390fd5b685150ae84a8cdf0000082101561181c576040517f08c379a00000000000000000000000000000000000000000000000000000000081526004016118139061480d565b60405180910390fd5b6a295be96e6406697200000082600e546118369190614c33565b1115611877576040517f08c379a000000000000000000000000000000000000000000000000000000000815260040161186e9061484d565b60405180910390fd5b7f000000000000000000000000000000000000000000000000000000000000000073ffffffffffffffffffffffffffffffffffffffff166323b872dd3330856040518463ffffffff1660e01b81526004016118d493929190614504565b602060405180830381600087803b1580156118ee57600080fd5b505af1158015611902573d6000803e3d6000fd5b505050506040513d601f19601f820116820180604052508101906119269190613e4c565b611965576040517f08c379a000000000000000000000000000000000000000000000000000000000815260040161195c906148cd565b60405180910390fd5b6276a700811480611978575062ed4e0081145b806119865750630163f50081145b8061199457506301e1338081145b6119d3576040517f08c379a00000000000000000000000000000000000000000000000000000000081526004016119ca9061496d565b60405180910390fd5b6000604051806101200160405280848152602001600c548152602001838152602001600081526020014281526020013373ffffffffffffffffffffffffffffffffffffffff16815260200160008152602001600115158152602001600015158152509050611a4333600c54612c74565b80600f6000600c548152602001908152602001600020600082015181600001556020820151816001015560408201518160020155606082015181600301556080820151816004015560a08201518160050160006101000a81548173ffffffffffffffffffffffffffffffffffffffff021916908373ffffffffffffffffffffffffffffffffffffffff16021790555060c0820151816006015560e08201518160070160006101000a81548160ff0219169083151502179055506101008201518160070160016101000a81548160ff0219169083151502179055509050507f072db3cafa6572052b0c3c566f5726ae74e0e6c44d5557b3523273a690aef83f3384600c54604051611b55939291906145d9565b60405180910390a16001600c6000828254611b709190614c33565b9250508190555082600e6000828254611b899190614c33565b92505081905550505050565b60008060009054906101000a900473ffffffffffffffffffffffffffffffffffffffff16905090565b606060028054611bcd90614e9c565b80601f0160208091040260200160405190810160405280929190818152602001828054611bf990614e9c565b8015611c465780601f10611c1b57610100808354040283529160200191611c46565b820191906000526020600020905b815481529060010190602001808311611c2957829003601f168201915b5050505050905090565b600d8054611c5d90614e9c565b80601f0160208091040260200160405190810160405280929190818152602001828054611c8990614e9c565b8015611cd65780601f10611cab57610100808354040283529160200191611cd6565b820191906000526020600020905b815481529060010190602001808311611cb957829003601f168201915b505050505081565b611ce66125af565b73ffffffffffffffffffffffffffffffffffffffff16611d04611b95565b73ffffffffffffffffffffffffffffffffffffffff1614611d5a576040517f08c379a0000000000000000000000000000000000000000000000000000000008152600401611d51906148ed565b60405180910390fd5b80600d9080519060200190611d70929190613a9f565b5050565b611d7c6125af565b73ffffffffffffffffffffffffffffffffffffffff168273ffffffffffffffffffffffffffffffffffffffff161415611dea576040517f08c379a0000000000000000000000000000000000000000000000000000000008152600401611de19061474d565b60405180910390fd5b8060066000611df76125af565b73ffffffffffffffffffffffffffffffffffffffff1673ffffffffffffffffffffffffffffffffffffffff16815260200190815260200160002060008473ffffffffffffffffffffffffffffffffffffffff1673ffffffffffffffffffffffffffffffffffffffff16815260200190815260200160002060006101000a81548160ff0219169083151502179055508173ffffffffffffffffffffffffffffffffffffffff16611ea46125af565b73ffffffffffffffffffffffffffffffffffffffff167f17307eab39ab6107e8899845ad3d59bd9653f200f220920489ca2b5937696c3183604051611ee99190614610565b60405180910390a35050565b611f06611f006125af565b836126dc565b611f45576040517f08c379a0000000000000000000000000000000000000000000000000000000008152600401611f3c9061498d565b60405180910390fd5b611f5184848484612e42565b50505050565b6060611f6282612e9e565b9050919050565b600f6020528060005260406000206000915090508060000154908060010154908060020154908060030154908060040154908060050160009054906101000a900473ffffffffffffffffffffffffffffffffffffffff16908060060154908060070160009054906101000a900460ff16908060070160019054906101000a900460ff16905089565b6000611ffb6125af565b73ffffffffffffffffffffffffffffffffffffffff16612019611b95565b73ffffffffffffffffffffffffffffffffffffffff161461206f576040517f08c379a0000000000000000000000000000000000000000000000000000000008152600401612066906148ed565b60405180910390fd5b81600f600085815260200190815260200160002060060160008282546120959190614d14565b925050819055507fb3a8f33e4db144c09da0124d5124b3ef9316956a4968810e56c59428b682785c6120c68461159a565b836040516120d5929190614587565b60405180910390a16001905092915050565b6000600660008473ffffffffffffffffffffffffffffffffffffffff1673ffffffffffffffffffffffffffffffffffffffff16815260200190815260200160002060008373ffffffffffffffffffffffffffffffffffffffff1673ffffffffffffffffffffffffffffffffffffffff16815260200190815260200160002060009054906101000a900460ff16905092915050565b6121836125af565b73ffffffffffffffffffffffffffffffffffffffff166121a1611b95565b73ffffffffffffffffffffffffffffffffffffffff16146121f7576040517f08c379a00000000000000000000000000000000000000000000000000000000081526004016121ee906148ed565b60405180910390fd5b600073ffffffffffffffffffffffffffffffffffffffff168173ffffffffffffffffffffffffffffffffffffffff161415612267576040517f08c379a000000000000000000000000000000000000000000000000000000000815260040161225e906146ad565b60405180910390fd5b61227081612bb0565b50565b600080600f60008481526020019081526020016000206040518061012001604052908160008201548152602001600182015481526020016002820154815260200160038201548152602001600482015481526020016005820160009054906101000a900473ffffffffffffffffffffffffffffffffffffffff1673ffffffffffffffffffffffffffffffffffffffff1673ffffffffffffffffffffffffffffffffffffffff168152602001600682015481526020016007820160009054906101000a900460ff161515151581526020016007820160019054906101000a900460ff16151515158152505090508060e001516123a3576040517f08c379a000000000000000000000000000000000000000000000000000000000815260040161239a90614a0d565b60405180910390fd5b60006123bc826040015183600001518460800151612a16565b90508160c001518260600151826123d39190614da8565b6123dd9190614b9f565b92505050919050565b600080600f60008481526020019081526020016000206040518061012001604052908160008201548152602001600182015481526020016002820154815260200160038201548152602001600482015481526020016005820160009054906101000a900473ffffffffffffffffffffffffffffffffffffffff1673ffffffffffffffffffffffffffffffffffffffff1673ffffffffffffffffffffffffffffffffffffffff168152602001600682015481526020016007820160009054906101000a900460ff161515151581526020016007820160019054906101000a900460ff16151515158152505090508060e00151612516576040517f08c379a000000000000000000000000000000000000000000000000000000000815260040161250d90614a0d565b60405180910390fd5b8060400151816080015161252a9190614c33565b421015915050919050565b60007f780e9d63000000000000000000000000000000000000000000000000000000007bffffffffffffffffffffffffffffffffffffffffffffffffffffffff1916827bffffffffffffffffffffffffffffffffffffffffffffffffffffffff191614806125a857506125a782612ff0565b5b9050919050565b600033905090565b60008073ffffffffffffffffffffffffffffffffffffffff166003600084815260200190815260200160002060009054906101000a900473ffffffffffffffffffffffffffffffffffffffff1673ffffffffffffffffffffffffffffffffffffffff1614159050919050565b816005600083815260200190815260200160002060006101000a81548173ffffffffffffffffffffffffffffffffffffffff021916908373ffffffffffffffffffffffffffffffffffffffff160217905550808273ffffffffffffffffffffffffffffffffffffffff166126968361159a565b73ffffffffffffffffffffffffffffffffffffffff167f8c5be1e5ebec7d5bd14f71427d1e84f3dd0314c0f7b2291e5b200ac8c7c3b92560405160405180910390a45050565b60006126e7826125b7565b612726576040517f08c379a000000000000000000000000000000000000000000000000000000000815260040161271d9061476d565b60405180910390fd5b60006127318361159a565b90508073ffffffffffffffffffffffffffffffffffffffff168473ffffffffffffffffffffffffffffffffffffffff1614806127a057508373ffffffffffffffffffffffffffffffffffffffff16612788846109ef565b73ffffffffffffffffffffffffffffffffffffffff16145b806127b157506127b081856120e7565b5b91505092915050565b8273ffffffffffffffffffffffffffffffffffffffff166127da8261159a565b73ffffffffffffffffffffffffffffffffffffffff1614612830576040517f08c379a00000000000000000000000000000000000000000000000000000000081526004016128279061490d565b60405180910390fd5b600073ffffffffffffffffffffffffffffffffffffffff168273ffffffffffffffffffffffffffffffffffffffff1614156128a0576040517f08c379a00000000000000000000000000000000000000000000000000000000081526004016128979061472d565b60405180910390fd5b6128ab8383836130d2565b6128b6600082612623565b6001600460008573ffffffffffffffffffffffffffffffffffffffff1673ffffffffffffffffffffffffffffffffffffffff16815260200190815260200160002060008282546129069190614da8565b925050819055506001600460008473ffffffffffffffffffffffffffffffffffffffff1673ffffffffffffffffffffffffffffffffffffffff168152602001908152602001600020600082825461295d9190614c33565b92505081905550816003600083815260200190815260200160002060006101000a81548173ffffffffffffffffffffffffffffffffffffffff021916908373ffffffffffffffffffffffffffffffffffffffff160217905550808273ffffffffffffffffffffffffffffffffffffffff168473ffffffffffffffffffffffffffffffffffffffff167fddf252ad1be2c89b69c2b068fc378daa952ba7f163c4a11628f55a4df523b3ef60405160405180910390a4505050565b6000806000612a2584876130e2565b90506276a700861480612a4557506276a7008442612a439190614da8565b105b15612a85576127106276a7008261046588612a609190614cba565b612a6a9190614cba565b612a749190614c89565b612a7e9190614c89565b9150612ba4565b62ed4e00861480612aa3575062ed4e008442612aa19190614da8565b105b15612ae35761271062ed4e0082610ea688612abe9190614cba565b612ac89190614cba565b612ad29190614c89565b612adc9190614c89565b9150612ba3565b630163f500861480612b035750630163f5008442612b019190614da8565b105b15612b4457612710630163f50082611d4c88612b1f9190614cba565b612b299190614cba565b612b339190614c89565b612b3d9190614c89565b9150612ba2565b6301e13380861480612b6457506301e133808442612b629190614da8565b105b15612ba1576127106301e13380826130d488612b809190614cba565b612b8a9190614cba565b612b949190614c89565b612b9e9190614c89565b91505b5b5b5b81925050509392505050565b60008060009054906101000a900473ffffffffffffffffffffffffffffffffffffffff169050816000806101000a81548173ffffffffffffffffffffffffffffffffffffffff021916908373ffffffffffffffffffffffffffffffffffffffff1602179055508173ffffffffffffffffffffffffffffffffffffffff168173ffffffffffffffffffffffffffffffffffffffff167f8be0079c531659141344cd1fd0a4f28419497f9722a3daafe3b4186f6b6457e060405160405180910390a35050565b600073ffffffffffffffffffffffffffffffffffffffff168273ffffffffffffffffffffffffffffffffffffffff161415612ce4576040517f08c379a0000000000000000000000000000000000000000000000000000000008152600401612cdb9061482d565b60405180910390fd5b612ced816125b7565b15612d2d576040517f08c379a0000000000000000000000000000000000000000000000000000000008152600401612d24906146ed565b60405180910390fd5b612d39600083836130d2565b6001600460008473ffffffffffffffffffffffffffffffffffffffff1673ffffffffffffffffffffffffffffffffffffffff1681526020019081526020016000206000828254612d899190614c33565b92505081905550816003600083815260200190815260200160002060006101000a81548173ffffffffffffffffffffffffffffffffffffffff021916908373ffffffffffffffffffffffffffffffffffffffff160217905550808273ffffffffffffffffffffffffffffffffffffffff16600073ffffffffffffffffffffffffffffffffffffffff167fddf252ad1be2c89b69c2b068fc378daa952ba7f163c4a11628f55a4df523b3ef60405160405180910390a45050565b612e4d8484846127ba565b612e5984848484613114565b612e98576040517f08c379a0000000000000000000000000000000000000000000000000000000008152600401612e8f9061468d565b60405180910390fd5b50505050565b6060612ea9826125b7565b612ee8576040517f08c379a0000000000000000000000000000000000000000000000000000000008152600401612edf9061486d565b60405180910390fd5b6000600b60008481526020019081526020016000208054612f0890614e9c565b80601f0160208091040260200160405190810160405280929190818152602001828054612f3490614e9c565b8015612f815780601f10612f5657610100808354040283529160200191612f81565b820191906000526020600020905b815481529060010190602001808311612f6457829003601f168201915b505050505090506000612f926132ab565b9050600081511415612fa8578192505050612feb565b600082511115612fdd578082604051602001612fc59291906144c5565b60405160208183030381529060405292505050612feb565b612fe68461333d565b925050505b919050565b60007f80ac58cd000000000000000000000000000000000000000000000000000000007bffffffffffffffffffffffffffffffffffffffffffffffffffffffff1916827bffffffffffffffffffffffffffffffffffffffffffffffffffffffff191614806130bb57507f5b5e139f000000000000000000000000000000000000000000000000000000007bffffffffffffffffffffffffffffffffffffffffffffffffffffffff1916827bffffffffffffffffffffffffffffffffffffffffffffffffffffffff1916145b806130cb57506130ca826133e4565b5b9050919050565b6130dd83838361344e565b505050565b60008183426130f19190614da8565b11156130ff5781905061310e565b824261310b9190614da8565b90505b92915050565b60006131358473ffffffffffffffffffffffffffffffffffffffff16613562565b1561329e578373ffffffffffffffffffffffffffffffffffffffff1663150b7a0261315e6125af565b8786866040518563ffffffff1660e01b8152600401613180949392919061453b565b602060405180830381600087803b15801561319a57600080fd5b505af19250505080156131cb57506040513d601f19601f820116820180604052508101906131c89190613e9e565b60015b61324e573d80600081146131fb576040519150601f19603f3d011682016040523d82523d6000602084013e613200565b606091505b50600081511415613246576040517f08c379a000000000000000000000000000000000000000000000000000000000815260040161323d9061468d565b60405180910390fd5b805181602001fd5b63150b7a0260e01b7bffffffffffffffffffffffffffffffffffffffffffffffffffffffff1916817bffffffffffffffffffffffffffffffffffffffffffffffffffffffff1916149150506132a3565b600190505b949350505050565b6060600d80546132ba90614e9c565b80601f01602080910402602001604051908101604052809291908181526020018280546132e690614e9c565b80156133335780601f1061330857610100808354040283529160200191613333565b820191906000526020600020905b81548152906001019060200180831161331657829003601f168201915b5050505050905090565b6060613348826125b7565b613387576040517f08c379a000000000000000000000000000000000000000000000000000000000815260040161337e9061492d565b60405180910390fd5b60006133916132ab565b905060008151116133b157604051806020016040528060008152506133dc565b806133bb84613575565b6040516020016133cc9291906144c5565b6040516020818303038152906040525b915050919050565b60007f01ffc9a7000000000000000000000000000000000000000000000000000000007bffffffffffffffffffffffffffffffffffffffffffffffffffffffff1916827bffffffffffffffffffffffffffffffffffffffffffffffffffffffff1916149050919050565b613459838383613722565b600073ffffffffffffffffffffffffffffffffffffffff168373ffffffffffffffffffffffffffffffffffffffff16141561349c5761349781613727565b6134db565b8173ffffffffffffffffffffffffffffffffffffffff168373ffffffffffffffffffffffffffffffffffffffff16146134da576134d98382613770565b5b5b600073ffffffffffffffffffffffffffffffffffffffff168273ffffffffffffffffffffffffffffffffffffffff16141561351e57613519816138dd565b61355d565b8273ffffffffffffffffffffffffffffffffffffffff168273ffffffffffffffffffffffffffffffffffffffff161461355c5761355b8282613a20565b5b5b505050565b600080823b905060008111915050919050565b606060008214156135bd576040518060400160405280600181526020017f3000000000000000000000000000000000000000000000000000000000000000815250905061371d565b600082905060005b600082146135ef5780806135d890614eff565b915050600a826135e89190614c89565b91506135c5565b60008167ffffffffffffffff811115613631577f4e487b7100000000000000000000000000000000000000000000000000000000600052604160045260246000fd5b6040519080825280601f01601f1916602001820160405280156136635781602001600182028036833780820191505090505b5090505b600085146137165760018261367c9190614da8565b9150600a8561368b9190614f48565b60306136979190614c33565b60f81b8183815181106136d3577f4e487b7100000000000000000000000000000000000000000000000000000000600052603260045260246000fd5b60200101907effffffffffffffffffffffffffffffffffffffffffffffffffffffffffffff1916908160001a905350600a8561370f9190614c89565b9450613667565b8093505050505b919050565b505050565b600980549050600a600083815260200190815260200160002081905550600981908060018154018082558091505060019003906000526020600020016000909190919091505550565b6000600161377d8461164c565b6137879190614da8565b905060006008600084815260200190815260200160002054905081811461386c576000600760008673ffffffffffffffffffffffffffffffffffffffff1673ffffffffffffffffffffffffffffffffffffffff168152602001908152602001600020600084815260200190815260200160002054905080600760008773ffffffffffffffffffffffffffffffffffffffff1673ffffffffffffffffffffffffffffffffffffffff168152602001908152602001600020600084815260200190815260200160002081905550816008600083815260200190815260200160002081905550505b6008600084815260200190815260200160002060009055600760008573ffffffffffffffffffffffffffffffffffffffff1673ffffffffffffffffffffffffffffffffffffffff16815260200190815260200160002060008381526020019081526020016000206000905550505050565b600060016009805490506138f19190614da8565b90506000600a6000848152602001908152602001600020549050600060098381548110613947577f4e487b7100000000000000000000000000000000000000000000000000000000600052603260045260246000fd5b90600052602060002001549050806009838154811061398f577f4e487b7100000000000000000000000000000000000000000000000000000000600052603260045260246000fd5b906000526020600020018190555081600a600083815260200190815260200160002081905550600a6000858152602001908152602001600020600090556009805480613a04577f4e487b7100000000000000000000000000000000000000000000000000000000600052603160045260246000fd5b6001900381819060005260206000200160009055905550505050565b6000613a2b8361164c565b905081600760008573ffffffffffffffffffffffffffffffffffffffff1673ffffffffffffffffffffffffffffffffffffffff168152602001908152602001600020600083815260200190815260200160002081905550806008600084815260200190815260200160002081905550505050565b828054613aab90614e9c565b90600052602060002090601f016020900481019282613acd5760008555613b14565b82601f10613ae657805160ff1916838001178555613b14565b82800160010185558215613b14579182015b82811115613b13578251825591602001919060010190613af8565b5b509050613b219190613b25565b5090565b5b80821115613b3e576000816000905550600101613b26565b5090565b6000613b55613b5084614afa565b614ad5565b905082815260208101848484011115613b6d57600080fd5b613b78848285614e5a565b509392505050565b6000613b93613b8e84614b2b565b614ad5565b905082815260208101848484011115613bab57600080fd5b613bb6848285614e5a565b509392505050565b600081359050613bcd81615881565b92915050565b600081359050613be281615898565b92915050565b600081519050613bf781615898565b92915050565b600081359050613c0c816158af565b92915050565b600081519050613c21816158af565b92915050565b600082601f830112613c3857600080fd5b8135613c48848260208601613b42565b91505092915050565b600081359050613c60816158c6565b92915050565b600082601f830112613c7757600080fd5b8135613c87848260208601613b80565b91505092915050565b600081359050613c9f816158dd565b92915050565b600060208284031215613cb757600080fd5b6000613cc584828501613bbe565b91505092915050565b60008060408385031215613ce157600080fd5b6000613cef85828601613bbe565b9250506020613d0085828601613bbe565b9150509250929050565b600080600060608486031215613d1f57600080fd5b6000613d2d86828701613bbe565b9350506020613d3e86828701613bbe565b9250506040613d4f86828701613c90565b9150509250925092565b60008060008060808587031215613d6f57600080fd5b6000613d7d87828801613bbe565b9450506020613d8e87828801613bbe565b9350506040613d9f87828801613c90565b925050606085013567ffffffffffffffff811115613dbc57600080fd5b613dc887828801613c27565b91505092959194509250565b60008060408385031215613de757600080fd5b6000613df585828601613bbe565b9250506020613e0685828601613bd3565b9150509250929050565b60008060408385031215613e2357600080fd5b6000613e3185828601613bbe565b9250506020613e4285828601613c90565b9150509250929050565b600060208284031215613e5e57600080fd5b6000613e6c84828501613be8565b91505092915050565b600060208284031215613e8757600080fd5b6000613e9584828501613bfd565b91505092915050565b600060208284031215613eb057600080fd5b6000613ebe84828501613c12565b91505092915050565b600060208284031215613ed957600080fd5b600082013567ffffffffffffffff811115613ef357600080fd5b613eff84828501613c66565b91505092915050565b600060208284031215613f1a57600080fd5b6000613f2884828501613c90565b91505092915050565b60008060408385031215613f4457600080fd5b6000613f5285828601613c90565b9250506020613f6385828601613c51565b9150509250929050565b60008060408385031215613f8057600080fd5b6000613f8e85828601613c90565b9250506020613f9f85828601613c90565b9150509250929050565b613fb281614ddc565b82525050565b613fc181614dee565b82525050565b6000613fd282614b5c565b613fdc8185614b72565b9350613fec818560208601614e69565b613ff581615035565b840191505092915050565b61400981614e26565b82525050565b600061401a82614b67565b6140248185614b83565b9350614034818560208601614e69565b61403d81615035565b840191505092915050565b600061405382614b67565b61405d8185614b94565b935061406d818560208601614e69565b80840191505092915050565b6000614086601683614b83565b915061409182615046565b602082019050919050565b60006140a9602b83614b83565b91506140b48261506f565b604082019050919050565b60006140cc603283614b83565b91506140d7826150be565b604082019050919050565b60006140ef602683614b83565b91506140fa8261510d565b604082019050919050565b6000614112601883614b83565b915061411d8261515c565b602082019050919050565b6000614135601c83614b83565b915061414082615185565b602082019050919050565b6000614158601883614b83565b9150614163826151ae565b602082019050919050565b600061417b602483614b83565b9150614186826151d7565b604082019050919050565b600061419e601983614b83565b91506141a982615226565b602082019050919050565b60006141c1602c83614b83565b91506141cc8261524f565b604082019050919050565b60006141e4603983614b83565b91506141ef8261529e565b604082019050919050565b6000614207603883614b83565b9150614212826152ed565b604082019050919050565b600061422a602a83614b83565b91506142358261533c565b604082019050919050565b600061424d602983614b83565b91506142588261538b565b604082019050919050565b6000614270602083614b83565b915061427b826153da565b602082019050919050565b6000614293602083614b83565b915061429e82615403565b602082019050919050565b60006142b6602183614b83565b91506142c18261542c565b604082019050919050565b60006142d9603183614b83565b91506142e48261547b565b604082019050919050565b60006142fc601883614b83565b9150614307826154ca565b602082019050919050565b600061431f602c83614b83565b915061432a826154f3565b604082019050919050565b6000614342603883614b83565b915061434d82615542565b604082019050919050565b6000614365602083614b83565b915061437082615591565b602082019050919050565b6000614388602983614b83565b9150614393826155ba565b604082019050919050565b60006143ab602f83614b83565b91506143b682615609565b604082019050919050565b60006143ce602183614b83565b91506143d982615658565b604082019050919050565b60006143f1606183614b83565b91506143fc826156a7565b608082019050919050565b6000614414603183614b83565b915061441f82615742565b604082019050919050565b6000614437602683614b83565b915061444282615791565b604082019050919050565b600061445a602c83614b83565b9150614465826157e0565b604082019050919050565b600061447d601a83614b83565b91506144888261582f565b602082019050919050565b60006144a0602083614b83565b91506144ab82615858565b602082019050919050565b6144bf81614e50565b82525050565b60006144d18285614048565b91506144dd8284614048565b91508190509392505050565b60006020820190506144fe6000830184613fa9565b92915050565b60006060820190506145196000830186613fa9565b6145266020830185613fa9565b61453360408301846144b6565b949350505050565b60006080820190506145506000830187613fa9565b61455d6020830186613fa9565b61456a60408301856144b6565b818103606083015261457c8184613fc7565b905095945050505050565b600060408201905061459c6000830185613fa9565b6145a96020830184614000565b9392505050565b60006040820190506145c56000830185613fa9565b6145d260208301846144b6565b9392505050565b60006060820190506145ee6000830186613fa9565b6145fb60208301856144b6565b61460860408301846144b6565b949350505050565b60006020820190506146256000830184613fb8565b92915050565b60006020820190508181036000830152614645818461400f565b905092915050565b6000602082019050818103600083015261466681614079565b9050919050565b600060208201905081810360008301526146868161409c565b9050919050565b600060208201905081810360008301526146a6816140bf565b9050919050565b600060208201905081810360008301526146c6816140e2565b9050919050565b600060208201905081810360008301526146e681614105565b9050919050565b6000602082019050818103600083015261470681614128565b9050919050565b600060208201905081810360008301526147268161414b565b9050919050565b600060208201905081810360008301526147468161416e565b9050919050565b6000602082019050818103600083015261476681614191565b9050919050565b60006020820190508181036000830152614786816141b4565b9050919050565b600060208201905081810360008301526147a6816141d7565b9050919050565b600060208201905081810360008301526147c6816141fa565b9050919050565b600060208201905081810360008301526147e68161421d565b9050919050565b6000602082019050818103600083015261480681614240565b9050919050565b6000602082019050818103600083015261482681614263565b9050919050565b6000602082019050818103600083015261484681614286565b9050919050565b60006020820190508181036000830152614866816142a9565b9050919050565b60006020820190508181036000830152614886816142cc565b9050919050565b600060208201905081810360008301526148a6816142ef565b9050919050565b600060208201905081810360008301526148c681614312565b9050919050565b600060208201905081810360008301526148e681614335565b9050919050565b6000602082019050818103600083015261490681614358565b9050919050565b600060208201905081810360008301526149268161437b565b9050919050565b600060208201905081810360008301526149468161439e565b9050919050565b60006020820190508181036000830152614966816143c1565b9050919050565b60006020820190508181036000830152614986816143e4565b9050919050565b600060208201905081810360008301526149a681614407565b9050919050565b600060208201905081810360008301526149c68161442a565b9050919050565b600060208201905081810360008301526149e68161444d565b9050919050565b60006020820190508181036000830152614a0681614470565b9050919050565b60006020820190508181036000830152614a2681614493565b9050919050565b6000602082019050614a4260008301846144b6565b92915050565b600061012082019050614a5e600083018c6144b6565b614a6b602083018b6144b6565b614a78604083018a6144b6565b614a8560608301896144b6565b614a9260808301886144b6565b614a9f60a0830187613fa9565b614aac60c0830186614000565b614ab960e0830185613fb8565b614ac7610100830184613fb8565b9a9950505050505050505050565b6000614adf614af0565b9050614aeb8282614ece565b919050565b6000604051905090565b600067ffffffffffffffff821115614b1557614b14615006565b5b614b1e82615035565b9050602081019050919050565b600067ffffffffffffffff821115614b4657614b45615006565b5b614b4f82615035565b9050602081019050919050565b600081519050919050565b600081519050919050565b600082825260208201905092915050565b600082825260208201905092915050565b600081905092915050565b6000614baa82614e26565b9150614bb583614e26565b9250817f7fffffffffffffffffffffffffffffffffffffffffffffffffffffffffffffff03831360008312151615614bf057614bef614f79565b5b817f8000000000000000000000000000000000000000000000000000000000000000038312600083121615614c2857614c27614f79565b5b828201905092915050565b6000614c3e82614e50565b9150614c4983614e50565b9250827fffffffffffffffffffffffffffffffffffffffffffffffffffffffffffffffff03821115614c7e57614c7d614f79565b5b828201905092915050565b6000614c9482614e50565b9150614c9f83614e50565b925082614caf57614cae614fa8565b5b828204905092915050565b6000614cc582614e50565b9150614cd083614e50565b9250817fffffffffffffffffffffffffffffffffffffffffffffffffffffffffffffffff0483118215151615614d0957614d08614f79565b5b828202905092915050565b6000614d1f82614e26565b9150614d2a83614e26565b9250827f800000000000000000000000000000000000000000000000000000000000000001821260008412151615614d6557614d64614f79565b5b827f7fffffffffffffffffffffffffffffffffffffffffffffffffffffffffffffff018213600084121615614d9d57614d9c614f79565b5b828203905092915050565b6000614db382614e50565b9150614dbe83614e50565b925082821015614dd157614dd0614f79565b5b828203905092915050565b6000614de782614e30565b9050919050565b60008115159050919050565b60007fffffffff0000000000000000000000000000000000000000000000000000000082169050919050565b6000819050919050565b600073ffffffffffffffffffffffffffffffffffffffff82169050919050565b6000819050919050565b82818337600083830152505050565b60005b83811015614e87578082015181840152602081019050614e6c565b83811115614e96576000848401525b50505050565b60006002820490506001821680614eb457607f821691505b60208210811415614ec857614ec7614fd7565b5b50919050565b614ed782615035565b810181811067ffffffffffffffff82111715614ef657614ef5615006565b5b80604052505050565b6000614f0a82614e50565b91507fffffffffffffffffffffffffffffffffffffffffffffffffffffffffffffffff821415614f3d57614f3c614f79565b5b600182019050919050565b6000614f5382614e50565b9150614f5e83614e50565b925082614f6e57614f6d614fa8565b5b828206905092915050565b7f4e487b7100000000000000000000000000000000000000000000000000000000600052601160045260246000fd5b7f4e487b7100000000000000000000000000000000000000000000000000000000600052601260045260246000fd5b7f4e487b7100000000000000000000000000000000000000000000000000000000600052602260045260246000fd5b7f4e487b7100000000000000000000000000000000000000000000000000000000600052604160045260246000fd5b6000601f19601f8301169050919050565b7f596f7520646f6e74206f776e2074686973206e66742e00000000000000000000600082015250565b7f455243373231456e756d657261626c653a206f776e657220696e646578206f7560008201527f74206f6620626f756e6473000000000000000000000000000000000000000000602082015250565b7f4552433732313a207472616e7366657220746f206e6f6e20455243373231526560008201527f63656976657220696d706c656d656e7465720000000000000000000000000000602082015250565b7f4f776e61626c653a206e6577206f776e657220697320746865207a65726f206160008201527f6464726573730000000000000000000000000000000000000000000000000000602082015250565b7f596f752063616e74207374616b65203020746f6b656e732e0000000000000000600082015250565b7f4552433732313a20746f6b656e20616c7265616479206d696e74656400000000600082015250565b7f5374616b65206861736e74206d617475726564207965742e0000000000000000600082015250565b7f4552433732313a207472616e7366657220746f20746865207a65726f2061646460008201527f7265737300000000000000000000000000000000000000000000000000000000602082015250565b7f4552433732313a20617070726f766520746f2063616c6c657200000000000000600082015250565b7f4552433732313a206f70657261746f7220717565727920666f72206e6f6e657860008201527f697374656e7420746f6b656e0000000000000000000000000000000000000000602082015250565b7f63616e6e6f7420776974686472617720616d6f756e74206d6f7265207468616e60008201527f2063757272656e746c79206561726e6564207265776172647300000000000000602082015250565b7f4552433732313a20617070726f76652063616c6c6572206973206e6f74206f7760008201527f6e6572206e6f7220617070726f76656420666f7220616c6c0000000000000000602082015250565b7f4552433732313a2062616c616e636520717565727920666f7220746865207a6560008201527f726f206164647265737300000000000000000000000000000000000000000000602082015250565b7f4552433732313a206f776e657220717565727920666f72206e6f6e657869737460008201527f656e7420746f6b656e0000000000000000000000000000000000000000000000602082015250565b7f546865206d696e696d756d207374616b6520697320312c3530302058504e4554600082015250565b7f4552433732313a206d696e7420746f20746865207a65726f2061646472657373600082015250565b7f4d6178696d756d20636f756e7420666f72207374616b6573207265616368656460008201527f2e00000000000000000000000000000000000000000000000000000000000000602082015250565b7f45524337323155524953746f726167653a2055524920717565727920666f722060008201527f6e6f6e6578697374656e7420746f6b656e000000000000000000000000000000602082015250565b7f596f7520646f6e74206f776e2074686973207374616b652e0000000000000000600082015250565b7f4552433732313a20617070726f76656420717565727920666f72206e6f6e657860008201527f697374656e7420746f6b656e0000000000000000000000000000000000000000602082015250565b7f506c6561736520617070726f766520746865207374616b696e6720616d6f756e60008201527f7420696e206e617469766520746f6b656e2066697273742e0000000000000000602082015250565b7f4f776e61626c653a2063616c6c6572206973206e6f7420746865206f776e6572600082015250565b7f4552433732313a207472616e73666572206f6620746f6b656e2074686174206960008201527f73206e6f74206f776e0000000000000000000000000000000000000000000000602082015250565b7f4552433732314d657461646174613a2055524920717565727920666f72206e6f60008201527f6e6578697374656e7420746f6b656e0000000000000000000000000000000000602082015250565b7f4552433732313a20617070726f76616c20746f2063757272656e74206f776e6560008201527f7200000000000000000000000000000000000000000000000000000000000000602082015250565b7f506c65617365206d616b6520737572652074686520616d6f756e74207370656360008201527f6966696564206973206f6e65206f662074686520666f7572205b39302064617960208201527f732c2031383020646179732c2032373020646179732c2033363520646179735d60408201527f2e00000000000000000000000000000000000000000000000000000000000000606082015250565b7f4552433732313a207472616e736665722063616c6c6572206973206e6f74206f60008201527f776e6572206e6f7220617070726f766564000000000000000000000000000000602082015250565b7f596f75206861766520616c72656164792077697468647261776e20796f75722060008201527f7374616b652e0000000000000000000000000000000000000000000000000000602082015250565b7f455243373231456e756d657261626c653a20676c6f62616c20696e646578206f60008201527f7574206f6620626f756e64730000000000000000000000000000000000000000602082015250565b7f6661696c656420746f2077697468647261772072657761726473000000000000600082015250565b7f54686520676976656e20746f6b656e20696420697320696e636f72726563742e600082015250565b61588a81614ddc565b811461589557600080fd5b50565b6158a181614dee565b81146158ac57600080fd5b50565b6158b881614dfa565b81146158c357600080fd5b50565b6158cf81614e26565b81146158da57600080fd5b50565b6158e681614e50565b81146158f157600080fd5b5056fea264697066735822122089a3303ba4d85c2b009c7fb9a81fe4d68f2f9c80102fedbe86893a350880c28e64736f6c6343000804003368747470733a2f2f7374616b696e672d6170692e78702e6e6574776f726b2f7374616b696e672d6e6674732f",
  "linkReferences": {},
  "deployedLinkReferences": {}
}